:100000000C9463000C948B000C948B000C948B006C
:100010000C948B000C948B000C948B000C948B0034
:100020000C948B000C948B000C948B000C948B0024
:100030000C948B000C948B000C948B000C948B0014
:100040000C94B5060C948B000C9425070C94FF06B9
:100050000C948B000C948B000C948B000C948B00F4
:100060000C9457070C948B0000000000240027001C
:100070002A0000000000250028002B0000000000DE
:1000800023002600290004040404040404040202DA
:100090000202020203030303030301020408102007
:1000A0004080010204081020010204081020000012
:1000B0000008000201000003040700000000000027
:1000C000000076082F0C11241FBECFEFD8E0DEBF52
:1000D000CDBF11E0A0E0B1E0EAE3FDE102C0059090
:1000E0000D92A83DB107D9F723E0A8EDB1E001C01A
:1000F0001D92A037B207E1F710E0C2E6D0E004C0DD
:100100002197FE010E94980CC136D107C9F70E94C1
:10011000C6080C94900E0C940000809139029091C6
:100120003A02891B990B0895833081F028F48130BD
:1001300099F08230A9F008958730A9F08830C9F08D
:100140008430B1F4809180008F7D03C08091800065
:100150008F7780938000089584B58F7784BD08954C
:1001600084B58F7DFBCF8091B0008F778093B000F6
:1001700008958091B0008F7DF9CF1F93CF93DF93C7
:10018000282F30E0F901E255FF4F8491F901E6563E
:10019000FF4FD491F901EA57FF4FC491CC23A9F046
:1001A000162F81110E949400EC2FF0E0EE0FFF1F3C
:1001B000EE58FF4FA591B4918FB7F894EC911111BF
:1001C00008C0D095DE23DC938FBFDF91CF911F91C4
:1001D0000895DE2BF8CFCF93DF9390E0FC01E65635
:1001E000FF4F24918A579F4FFC0184918823D1F0BF
:1001F00090E0880F991FFC01E859FF4FA591B49139
:10020000FC01EE58FF4FC591D49161110EC09FB70C
:10021000F8948C91E22FE0958E238C932881E22331
:10022000E8839FBFDF91CF9108958FB7F894EC9149
:10023000E22BEC938FBFF6CF8230910538F0880F18
:10024000991F880F991F05970197F1F70895AF92AD
:10025000BF92CF92DF92EF92FF920F931F93CF93B3
:10026000DF938B01FB011082D0E0C0E0E82EF12C7F
:10027000CC24C394D12CB7010C2E02C07595679580
:100280000A94E2F76170809135020E94BD0060E03F
:10029000809137020E94BD008091380290E00E9458
:1002A0001C012091340230E0F901E255FF4F8491A6
:1002B000F901E656FF4FB490F901EA57FF4FA490B9
:1002C000AA20C9F081110E949400EA2DF0E0EE0FFF
:1002D000FF1FE458FF4FA591B491EC91BE2259F055
:1002E000F801808196010C2E01C0220F0A94EAF7D2
:1002F000822BF801808361E0809137020E94BD006B
:100300008091380290E00E941C012196C830D105EE
:1003100009F0B1CFDF91CF911F910F91FF90EF9036
:10032000DF90CF90BF90AF9008953FB7F894809141
:10033000300290913102A0913202B091330226B581
:10034000A89B05C02F3F19F00196A11DB11D3FBF0D
:10035000BA2FA92F982F8827BC01CD01620F711DDC
:10036000811D911D42E0660F771F881F991F4A95D6
:10037000D1F7089508950895AF92BF92CF92DF927A
:10038000EF92FF920F931F93CF93DF936C017B014A
:100390008B01040F151FEB015E01AE18BF08C017DB
:1003A000D10759F06991D601ED91FC910190F0814E
:1003B000E02DC6010995892B79F7C501DF91CF9111
:1003C0001F910F91FF90EF90DF90CF90BF90AF9073
:1003D0000895FC01538D448D252F30E0842F90E04B
:1003E000821B930B541710F0CF9608950197089530
:1003F000FC01918D828D981761F0A28DAE0FBF2FF9
:10040000B11D5D968C91928D9F5F9F73928F90E04E
:1004100008958FEF9FEF0895FC01918D828D9817BD
:1004200031F0828DE80FF11D858D90E008958FEFFA
:100430009FEF0895FC01918D228D892F90E0805CC3
:100440009F4F821B91098F73992708958BEA92E041
:100450000E941A0221E0892B09F420E0822F0895DE
:1004600080E090E0892B29F00E94260281110C94F3
:1004700000000895FC01A48DA80FB92FB11DA35A47
:10048000BF4F2C91848D90E001968F739927848FB4
:10049000A689B7892C93A089B1898C9183708064D7
:1004A0008C93938D848D981306C00288F389E02D78
:1004B00080818F7D80830895EF92FF920F931F9329
:1004C000CF93DF93EC0181E0888F9B8D8C8D981307
:1004D0001AC0E889F989808185FF15C09FB7F89413
:1004E000EE89FF896083E889F9898081837080645F
:1004F00080839FBF81E090E0DF91CF911F910F91AA
:10050000FF90EF900895F62E0B8D10E00F5F1F4FB8
:100510000F731127E02E8C8D8E110CC00FB607FCC7
:10052000FACFE889F989808185FFF5CFCE010E9455
:100530003A02F1CFEB8DEC0FFD2FF11DE35AFF4F87
:10054000F0829FB7F8940B8FEA89FB8980818062E3
:10055000CFCFCF93DF93EC01888D8823B9F0AA89A0
:10056000BB89E889F9898C9185FD03C0808186FD6E
:100570000DC00FB607FCF7CF8C9185FFF2CF8081BD
:1005800085FFEDCFCE010E943A02E9CFDF91CF91F6
:1005900008952091F901260F3327331F21323105A9
:1005A000ECF42091A502FC0190E080E0243069F099
:1005B00082E00895A091F9012191AC0147525E4F6C
:1005C000A40FB52FB11D2C930196861798F3809137
:1005D000F901680F6093F90180E0089581E00895C2
:1005E0001092A50281E08093840210927F0261E064
:1005F00082E10E94BD0061E083E10E94BD00E9EB61
:10060000F0E080818E7F808380818D7F808388E48D
:100610008093B80085E48093BC000895CF93DF9366
:1006200091E09093D8018823B9F0C091B800D0919F
:10063000BA008091BC008A7B8093BC0060E082E1BC
:100640000E94BD0060E083E10E94BD000E94F002B4
:10065000D093BA00C093B800DF91CF910895CF92A4
:10066000DF92EF92FF920F931F93CF93C82F8132A7
:1006700008F096C00E9495016B017C018091A50253
:10068000811169C081E08093A502809384029FEF6D
:1006900090938302109282029C0F90938102809328
:1006A0008002809180028C668093800280917F021C
:1006B000813009F077C010927F020E9495016B0192
:1006C0007C01809180028093BB008091A702909171
:1006D000A802A091A902B091AA02892B8A2B8B2B88
:1006E000A1F00E9495010091A7021091A80220910B
:1006F000A9023091AA026C197D098E099F0906177B
:1007000017072807390708F447C08091BC0083FD0C
:10071000D8CF85EC8093BC000E9495016B017C01D1
:100720008091A502813009F43FC0809182028C172C
:1007300010F4C0918202AFE5B2E0E5E8F2E080E0BB
:100740008C1354C08C2FCF911F910F91FF90EF907D
:10075000DF90CF9008958091A7029091A802A09178
:10076000A902B091AA02892B8A2B8B2B09F486CF80
:100770000E9495010091A7021091A8022091A90260
:100780003091AA026C197D098E099F090617170777
:100790002807390708F072CF8091A6020E940E0345
:1007A000C0E0D0CF85EEB6CF8091A7029091A8028D
:1007B000A091A902B091AA02892B8A2B8B2B09F454
:1007C000AFCF0E9495010091A7021091A80220913D
:1007D000A9023091AA026C197D098E099F0906179A
:1007E00017072807390708F09BCFD6CF9D91919323
:1007F0008F5FA6CF8F929F92AF92BF92CF92DF92E0
:10080000EF92FF920F931F93CF93DF93D0915E02ED
:10081000D13208F0D7C0182FC0915D020E94950117
:100820006B017C018091A50281116BC082E08093F5
:10083000A502109384028FEF8093830210928202AC
:10084000D0938102ADE3B2E0EFE5F2E080E0D813AF
:1008500091C01092800280918002CC0FC82BC0936F
:10086000800280917F02813009F088C010927F025F
:100870000E9495016B017C01809180028093BB00F6
:100880008091A7029091A802A091A902B091AA021A
:10089000892B8A2B8B2BA1F00E9495010091A70236
:1008A0001091A8022091A9023091AA026C197D0929
:1008B0008E099F09061717072807390708F442C051
:1008C0008091BC0083FDD8CF85EC8093BC000E9452
:1008D00095016B017C018091A502823009F450C022
:1008E000809183028F3F09F46FC080918302803230
:1008F00009F46CC080918302803309F469C084E0FC
:1009000026C08091A7029091A802A091A902B0915F
:10091000AA02892B8A2B8B2B09F484CF0E94950184
:100920008090A7029090A802A090A902B090AA027D
:100930006C197D098E099F0986169706A806B906C7
:1009400008F070CF8091A6020E940E0385E01092FD
:100950003C0210925E0210923B02DF91CF911F91F8
:100960000F91FF90EF90DF90CF90BF90AF909F904E
:100970008F9008959D9191938F5F69CF85EEA5CF5C
:100980008091A7029091A802A091A902B091AA0219
:10099000892B8A2B8B2B09F49ECF0E949501009105
:1009A000A7021091A8022091A9023091AA026C1905
:1009B0007D098E099F09061717072807390708F0D0
:1009C0008ACFC0CF81E0C3CF80E0C1CF82E0BFCF6C
:1009D00083E0BDCF0895E0913A0280913902E81793
:1009E00030F4F0E0EB57FD4F808190E008958FEFF9
:1009F0009FEF089590913A02809139022FEF3FEFD7
:100A0000981748F4E92FF0E0EB57FD4F208130E0D4
:100A10009F5F90933A02C9010895CF92DF92EF92BF
:100A2000FF920F931F93CF93DF937C01CB018A0139
:100A300020913B02222389F0EB016B01C40ED51EED
:100A4000CC15DD0569F06991D701ED91FC9101901C
:100A5000F081E02DC7010995F3CF642F0E94C902F0
:100A6000C801DF91CF911F910F91FF90EF90DF9020
:100A7000CF900895CF93DF931F92CDB7DEB76983F0
:100A800020913B022223F9F020915E02203258F09F
:100A900021E030E0FC013383228390E080E00F907E
:100AA000DF91CF91089580913C02E82FF0E0E35C64
:100AB000FD4F998190838F5F80933C0280935E020B
:100AC00081E090E0ECCF61E0CE0101960E94C90286
:100AD000F7CF90E080E00895CF9391E090933B02B0
:100AE00096E390935D0210923C0210925E02682F92
:100AF00088E493E00E943A0581E00E94FA0382E0D4
:100B00000E942F0310923A02809339028230F0F350
:100B100088E493E00E94FA04C82F88E493E00E94DE
:100B2000FA0420E0822B9C2BCF91089581E08093E2
:100B30003B0286E380935D0210923C0210925E02BB
:100B40006BE088E493E00E943A0581E00E94FA039A
:100B500081E00E942F0310923A02809339028111A2
:100B600001C0FFCF88E493E00C94FA04FC010190EB
:100B70000020E9F73197AF01481B590BBC018BEA04
:100B800092E00C94BC010F931F93CF93DF93EC0181
:100B900088819981009759F02A813B812617370770
:100BA00030F081E0DF91CF911F910F9108958B017B
:100BB0006F5F7F4F0E94C30D009759F09983888320
:100BC0001B830A832C813D81232B59F7FC01108262
:100BD000E8CF80E0E7CFEF92FF920F931F93CF9380
:100BE000DF936115710541F480E0DF91CF911F9192
:100BF0000F91FF90EF90089541155105B1F07B01E1
:100C0000EC010C811D81040F151FB8010E94C30562
:100C1000882351F3288139818C819D81B701820F0E
:100C2000931F0E94890E1D830C8381E0DECFCF933A
:100C3000DF93EC0188819981009711F00E943A0DB1
:100C4000198218821D821C821B821A82DF91CF9129
:100C50000895EF92FF920F931F93CF93DF93EC01D0
:100C60007B01198218821B821A821D821C82FB0161
:100C700001900020E9F731978F01061B170BB8018F
:100C80000E94C305811109C0CE01DF91CF911F9150
:100C90000F91FF90EF900C9417061D830C83B70102
:100CA00088819981DF91CF911F910F91FF90EF90F3
:100CB0000C94890ECF93DF93EC0162E371E00E9404
:100CC000290669E371E0CE0106960E94290660E4D8
:100CD00071E0CE010C960E94290667E471E0CE0116
:100CE0004296DF91CF910C942906FC01808191817D
:100CF000009711F00C943A0D089585ED8093BC0097
:100D00008091A7029091A802A091A902B091AA0295
:100D10000796A11DB11D23E0B695A79597958795D8
:100D20002A95D1F72091BC0024FD03C01092A502A2
:100D300008954091A7025091A8026091A902709174
:100D4000AA02452B462B472B69F30097A105B10555
:100D500041F025E32A95F1F700000197A109B109B7
:100D6000E1CF8091A6020C940E031F920F920FB652
:100D70000F9211242F933F938F939F93AF93BF9321
:100D800080912C0290912D02A0912E02B0912F0201
:100D900030912B0223E0230F2D3758F50196A11D2A
:100DA000B11D20932B0280932C0290932D02A093CF
:100DB0002E02B0932F028091300290913102A091C7
:100DC0003202B09133020196A11DB11D8093300211
:100DD00090933102A0933202B0933302BF91AF914E
:100DE0009F918F913F912F910F900FBE0F901F9069
:100DF000189526E8230F0296A11DB11DD2CF1F9290
:100E00000F920FB60F9211242F933F934F935F933E
:100E10006F937F938F939F93AF93BF93EF93FF93C2
:100E20008BEA92E00E943A02FF91EF91BF91AF915D
:100E30009F918F917F916F915F914F913F912F91F2
:100E40000F900FBE0F901F9018951F920F920FB624
:100E50000F9211242F938F939F93EF93FF93E09121
:100E6000BB02F091BC028081E091C102F091C2020C
:100E700082FD1BC090818091C4028F5F8F7320918F
:100E8000C502821741F0E091C402F0E0E555FD4F44
:100E9000958F8093C402FF91EF919F918F912F9135
:100EA0000F900FBE0F901F9018958081F4CF1F9266
:100EB0000F920FB60F9211242F933F934F935F938E
:100EC0006F937F938F939F93AF93BF93EF93FF9312
:100ED0008091B900887F803609F44AC0F0F58832E5
:100EE00009F4A7C018F5803109F49BC0B8F4882331
:100EF00009F4F9C0883009F494C0FF91EF91BF91D3
:100F0000AF919F918F917F916F915F914F913F91A1
:100F10002F910F900FBE0F901F901895883109F4F4
:100F200088C0803251F78093830214C0803409F462
:100F30009DC040F48033B9F38833F9F6809383027F
:100F400085ECB0C0803509F485C0883509F496C0B9
:100F5000883499F60E947D06D0CF883909F48CC078
:100F600038F5883729F050F4883611F0803729F6A3
:100F700083E08093A50210921B0257C0883809F4C1
:100F80007BC0803919F0803809F0B7CF80911B02FF
:100F9000803208F071C0E0911B0281E08E0F8093D7
:100FA0001B028091BB00F0E0E550FE4F80833DC006
:100FB000803B39F0E0F4803A09F479C0883A09F0CE
:100FC0009CCF84E08093A5021092FA011092F9015F
:100FD000E0911E02F0911F0209958091F9018111A3
:100FE0000FC081E08093F9011092D90109C0803CC3
:100FF00009F4A6CF883C09F4A3CF883B09F07DCF44
:10100000E091FA0181E08E0F8093FA01F0E0E7525F
:10101000FE4F80818093BB009091FA018091F9018D
:1010200029C0809180028093BB0085EC8093BC0036
:1010300064CF9091820280918102981758F5E091D7
:10104000820281E08E0F80938202F0E0E15AFD4F30
:101050008081E9CFE091820281E08E0F809382024D
:101060008091BB00F0E0E15AFD4F808390918202B5
:10107000809181029817C8F285E8D8CFE09182026A
:1010800081E08E0F809382028091BB00F0E0E15AF4
:10109000FD4F80838091840281115CCF81E0809339
:1010A0007F0284EA8093BC001092A50226CF85ECD3
:1010B0008093BC001092A50280911B02803230F414
:1010C000E0911B02F0E0E550FE4F108260911B02A0
:1010D00070E0E0911C02F0911D028BEF91E0099508
:1010E00010921B020ACF1092830234CFEBEAF2E097
:1010F0001382128288EE93E0A0E0B0E084839583AF
:10110000A683B78322E131E03183208325EC30E0F0
:101110003587248724EC30E03787268720EC30E0C1
:10112000318B208B21EC30E0338B228B22EC30E0B2
:10113000358B248B26EC30E0378B268B118E128E6C
:10114000138E148EE8E4F3E0138212828483958375
:10115000A683B78384E291E0918380836EE471E09B
:1011600084E593E00E94290666E571E08AE593E054
:101170000E9429066EE571E080E693E00E94290650
:1011800066E671E086E693E00C942906CF93DF9340
:10119000CDB7DEB7C354D1090FB6F894DEBF0FBE8A
:1011A000CDBF789484B5826084BD84B5816084BDF0
:1011B00085B5826085BD85B5816085BD80916E00F5
:1011C000816080936E001092810080918100826026
:1011D0008093810080918100816080938100809163
:1011E00080008160809380008091B1008460809352
:1011F000B1008091B00081608093B00080917A004E
:10120000846080937A0080917A00826080937A0073
:1012100080917A00816080937A0080917A00806862
:1012200080937A001092C1008AE690E00E949E0CA2
:1012300024E030E0FC01219331938F017F016C01A8
:10124000FAE6CF0ED11CC7010E945A062AE1E20E2F
:10125000F11CCE14DF04B9F710932A02009329027F
:1012600088E990E00E949E0CFC0188569F4F1082F6
:10127000118212821382118A108A138A128A178AA3
:10128000168AB6968E179F0791F78CE080933402EA
:101290008BE0809335028AE0809336029DE0909344
:1012A00037028093380260E08CE00E94EB0061E03E
:1012B0008CE00E94BD0061E08BE00E94EB0061E0E9
:1012C0008AE00E94EB0061E08AE00E94BD0061E0DC
:1012D0008DE00E94EB0061E08DE00E94BD0060E0C7
:1012E000809136020E94BD00BE016F5F7F4F81E09A
:1012F0000E942701BE016F5F7F4F83E40E94270198
:10130000BE016F5F7F4F80E00E942701BE016F5FCB
:101310007F4F81E00E942701BE016F5F7F4F80E019
:101320000E94270161E0809136020E94BD008091F9
:10133000380290E00E941C0160E0809136020E9419
:10134000BD00BE016F5F7F4F81E00E942701BE019B
:101350006F5F7F4F84E40E942701BE016F5F7F4F64
:1013600080E00E942701BE016F5F7F4F81E00E94F5
:101370002701BE016F5F7F4F83E00E94270104E0D9
:1013800010E0BE016F5F7F4F80E00E942701015097
:101390001109B9F761E0809136020E94BD00809189
:1013A000380290E00E941C0160E0809136020E94A9
:1013B000BD00BE016F5F7F4F81E00E942701BE012B
:1013C0006F5F7F4F8DE40E942701BE016F5F7F4FEB
:1013D00080E00E942701BE016F5F7F4F80E00E9486
:1013E0002701BE016F5F7F4F81E00E94270104E06B
:1013F00010E0BE016F5F7F4F8FEF0E942701015009
:101400001109B9F761E0809136020E94BD00809118
:10141000380290E00E941C0160E0809136020E9438
:10142000BD00BE016F5F7F4F81E00E942701BE01BA
:101430006F5F7F4F83E40E942701BE016F5F7F4F84
:1014400080E00E942701BE016F5F7F4F80E00E9415
:10145000270105E010E0BE016F5F7F4F8AE50E9423
:10146000270101501109B9F761E0809136020E940D
:10147000BD00E091BB02F091BC0282E08083E0916C
:10148000B702F091B8021082E091B902F091BA026D
:101490008FEC80831092C302E091BF02F091C002F2
:1014A00086E08083E091BD02F091BE028081806180
:1014B0008083E091BD02F091BE02808188608083CC
:1014C000E091BD02F091BE02808180688083E0914E
:1014D000BD02F091BE0280818F7D808310923A021E
:1014E0001092390210923C0210925E020E94F002A9
:1014F0008AEB91E090931F0280931E028BEB91E0A8
:1015000090931D0280931C028EE691E00E94B60526
:101510008BE791E00E94B6051E018CE3280E311C7A
:1015200080912802811163C1CE0182960E945A06E1
:10153000E6E0F1E02496FFAFEEAF249722963FAEAF
:101540002EAE2297712C612CF1E0F0933B0220E744
:1015500020935D0210923C0210925E0222968EADA4
:101560009FAD22978219930961E070E001C0660F78
:101570008A95EAF788E493E00E943A0581E00E94A8
:10158000FA032496EEADFFAD2497819191912496B4
:10159000FFAFEEAF24979BAF8AAF0E94960585FD03
:1015A00063C00E9496050AAD1BAD85FF8BC06EE738
:1015B00071E0CE0101960E94290626E0209FF001ED
:1015C000219FF00D112481E090E08C0F9D1FE80F0A
:1015D000F91F45A156A161A172A10E94EB058111DD
:1015E00004C0CE0101960E94170642E050E063E974
:1015F00071E0CE0101960E94EB05811104C0CE017D
:1016000001960E9417064D815E8169817A818BEA7D
:1016100092E00E94BC01CE0101960E9475068BE10A
:1016200090E00E946C059C0150E040E019A28E0100
:101630000F5D1F4FCA01B9012AE030E040E050E0E1
:101640000E94760C605DF80162938F0121153105CF
:101650004105510579F7309719F0CF010E94B60581
:101660008BE791E00E94B6052296EEADFFAD229782
:1016700021E021932296FFAFEEAF2297E09029025E
:10168000F0902A02E60CF71C8701CE0182966C01CD
:10169000470198E1890E911C0C151D0509F46EC0D7
:1016A000F601A080B180A114B10441F044805580BE
:1016B000B201C8010E94C305811158C0C8010E942F
:1016C00017065CC066E971E0CE0101960E9429060A
:1016D00026E0209FF001219FF00D112481E090E091
:1016E0008C0F9D1FE80FF91F45A156A161A172A1A2
:1016F0000E94EB05811104C0CE0101960E941706DD
:101700004D815E8169817A818BEA92E00E94BC0101
:101710008BE791E00E94B605CE0101960E94750606
:101720000E9495014B015C0188EEC82E83E0D82E03
:10173000E12CF12C0E949501681979098A099B090D
:10174000683E734081059105A8F391E0C91AD1085C
:10175000E108F108E8EE8E0EE3E09E1EA11CB11C2C
:10176000C114D104E104F10429F71BCFF80155821B
:101770004482B501808191810E94890E0A5F1F4FCA
:10178000F6E0CF0ED11C8016910609F085CF8AAD08
:101790009BADF701918F808FFAE16F0E711C28E6E7
:1017A0006216710409F0D0CE8CAD8823E9F08DADBE
:1017B0008823D1F08EAD8823B9F08FAD8823A1F0B6
:1017C00081E080932802CE01C4960E947506CE0166
:1017D0008E960E947506CE0188960E947506CE01EF
:1017E00082960E9475069CCE10922802ECCF8EEA5B
:1017F00091E00E94B6058BE791E00E94B6058091CA
:101800002802882301F18CE090E00E946C059093FF
:101810002102809320028CE090E00E946C0590935E
:101820002302809322028CE090E00E946C0590934A
:101830002502809324028CE090E00E946C05909336
:1018400027028093260200E010E001151105E9F35C
:101850000E9426028823C9F30E940000F6CF86E684
:1018600093E00E94750680E693E00E9475068AE583
:1018700093E00E94750684E593E00C9475062F9220
:101880003F924F925F926F927F928F929F92AF9210
:10189000BF92CF92DF92EF92FF920F931F93CF935D
:1018A000DF93CDB7DEB7CA1BDB0B0FB6F894DEBFF4
:1018B0000FBECDBF09942A88398848885F846E841A
:1018C0007D848C849B84AA84B984C884DF80EE8064
:1018D000FD800C811B81AA81B981CE0FD11D0FB66D
:1018E000F894DEBF0FBECDBFED010895A1E21A2E20
:1018F000AA1BBB1BFD010DC0AA1FBB1FEE1FFF1FB4
:10190000A217B307E407F50720F0A21BB30BE40B03
:10191000F50B661F771F881F991F1A9469F760954A
:101920007095809590959B01AC01BD01CF01089504
:10193000EE0FFF1F0590F491E02D09940F931F9374
:10194000CF93DF938230910510F482E090E0E09134
:101950006E03F0916F0330E020E0B0E0A0E030973C
:1019600099F42115310509F44AC0281B390B24309C
:101970003105D8F58A819B816115710589F1FB01DB
:1019800093838283FE0111C04081518102811381C2
:1019900048175907E0F04817590799F4109761F074
:1019A00012960C93129713961C933296CF01DF91E7
:1019B000CF911F910F91089500936E0310936F03C1
:1019C000F4CF2115310551F04217530738F0A90122
:1019D000DB019A01BD01DF01F801C1CFEF01F9CFB1
:1019E00090936F0380936E03CDCFFE01E20FF31F40
:1019F000819391932250310939832883D7CF209145
:101A00006C0330916D03232B41F42091020130913E
:101A1000030130936D0320936C03209100013091FA
:101A200001012115310541F42DB73EB74091040164
:101A300050910501241B350BE0916C03F0916D036F
:101A4000E217F307A0F42E1B3F0B2817390778F095
:101A5000AC014E5F5F4F2417350748F04E0F5F1FF4
:101A600050936D0340936C03819391939FCFF0E06B
:101A7000E0E09CCFCF93DF930097E9F0FC01329731
:101A800013821282A0916E03B0916F03ED0130E0DA
:101A900020E01097A1F420813181820F931F2091C3
:101AA0006C0330916D032817390709F061C0F0937A
:101AB0006D03E0936C03DF91CF910895EA01CE1797
:101AC000DF07E8F54A815B819E0141155105B1F7B9
:101AD000E901FB83EA8349915991C40FD51FEC17A3
:101AE000FD0761F4808191810296840F951FE901C1
:101AF00099838883828193819B838A83F0E0E0E0ED
:101B000012968D919C9113970097B9F52D913C9168
:101B10001197CD010296820F931F20916C03309193
:101B20006D032817390739F6309751F510926F0376
:101B300010926E03B0936D03A0936C03BCCFD3835C
:101B4000C28340815181840F951FC817D90761F462
:101B50004E5F5F4F88819981480F591F51834083A1
:101B60008A819B81938382832115310509F0B0CF4F
:101B7000F0936F03E0936E039ECFFD01DC01C0CFB5
:101B800013821282D7CFB0E0A0E0E9ECFDE00C9424
:101B9000410C8C01009751F4CB010E949E0C8C01EA
:101BA000C801CDB7DEB7E0E10C945D0CFC01E60F97
:101BB000F71F9C0122503109E217F30708F49DC07A
:101BC000D901CD91DC911197C617D70798F0C53090
:101BD000D10530F3CE0104978617970708F3C61B8B
:101BE000D70B2297C193D1936D937C93CF010E9421
:101BF0003A0DD6CF5B01AC1ABD0A4C018C0E9D1E6E
:101C0000A0916E03B0916F03512C412CF12CE12C6B
:101C1000109731F580916C0390916D0388159905AB
:101C200009F05CC04616570608F058C080910001C4
:101C300090910101009741F48DB79EB74091040146
:101C400050910501841B950BE817F90708F055C062
:101C5000F0936D03E0936C03F90171836083A0CF6F
:101C60008D919C91119712966C90129713967C907F
:101C70001397A815B90559F56C0142E0C40ED11CA3
:101C8000CA14DB0420F1AC014A195B09DA0112968F
:101C9000159780F06282738251834083D9016D93DE
:101CA0007C93E114F10471F0D7011396FC93EE9349
:101CB000129776CF22968C0F9D1FF9019183808316
:101CC000F301EFCFF0936F03E0936E0369CF4816F3
:101CD000590608F42C017D01D3019ACFCB010E9453
:101CE0009E0C7C01009749F0AE01B8010E94800E65
:101CF000C8010E943A0D870153CF10E000E050CF99
:101D0000FB01DC0102C001900D9241505040D8F718
:101D10000895FB01DC0101900D920020E1F7089588
:101D200010E0C2E6D0E004C0FE010E94980C2196AB
:0A1D3000C336D107C9F7F894FFCFBE
:101D3A0000007003800000000100020003000000A0
:101D4A0000005C02BC01E901A9021A02F8010C02B6
:101D5A00000000003A050D056905EA048D00FA0441
:101D6A00EB044A6F696E7431004A6F696E7432000F
:101D7A004A6F696E7433004A6F696E7434004A6F31
:101D8A00696E742031004A6F696E742032004A6F9E
:101D9A00696E742033004A6F696E74203400496E8C
:101DAA00697469616C697A696E67000D0A00437526
:101DBA007272656E74204D61676E69747564652010
:101DCA004020003A200043616E206E6F74206465E3
:101DDA0074656374206D61676E6574204000416CA0
:101DEA006C206D61676E657469632073656E736FCD
:101DFA00727320686173206265656E20696E69740A
:081E0A0069616C697A656400EE
:00000001FF
